{
  "contractName": "Pawnchain",
  "abi": [
    {
      "inputs": [],
      "stateMutability": "nonpayable",
      "type": "constructor"
    },
    {
      "anonymous": false,
      "inputs": [
        {
          "indexed": true,
          "internalType": "address",
          "name": "owner",
          "type": "address"
        },
        {
          "indexed": true,
          "internalType": "address",
          "name": "approved",
          "type": "address"
        },
        {
          "indexed": true,
          "internalType": "uint256",
          "name": "tokenId",
          "type": "uint256"
        }
      ],
      "name": "Approval",
      "type": "event"
    },
    {
      "anonymous": false,
      "inputs": [
        {
          "indexed": true,
          "internalType": "address",
          "name": "owner",
          "type": "address"
        },
        {
          "indexed": true,
          "internalType": "address",
          "name": "operator",
          "type": "address"
        },
        {
          "indexed": false,
          "internalType": "bool",
          "name": "approved",
          "type": "bool"
        }
      ],
      "name": "ApprovalForAll",
      "type": "event"
    },
    {
      "anonymous": false,
      "inputs": [
        {
          "indexed": true,
          "internalType": "address",
          "name": "previousOwner",
          "type": "address"
        },
        {
          "indexed": true,
          "internalType": "address",
          "name": "newOwner",
          "type": "address"
        }
      ],
      "name": "OwnershipTransferred",
      "type": "event"
    },
    {
      "anonymous": false,
      "inputs": [
        {
          "indexed": true,
          "internalType": "address",
          "name": "from",
          "type": "address"
        },
        {
          "indexed": true,
          "internalType": "address",
          "name": "to",
          "type": "address"
        },
        {
          "indexed": true,
          "internalType": "uint256",
          "name": "tokenId",
          "type": "uint256"
        }
      ],
      "name": "Transfer",
      "type": "event"
    },
    {
      "anonymous": false,
      "inputs": [
        {
          "indexed": false,
          "internalType": "uint256",
          "name": "tokenID",
          "type": "uint256"
        }
      ],
      "name": "tokenBought",
      "type": "event"
    },
    {
      "anonymous": false,
      "inputs": [
        {
          "indexed": false,
          "internalType": "uint256",
          "name": "tokenID",
          "type": "uint256"
        },
        {
          "indexed": false,
          "internalType": "uint256",
          "name": "price",
          "type": "uint256"
        }
      ],
      "name": "tokenMinted",
      "type": "event"
    },
    {
      "inputs": [
        {
          "internalType": "string",
          "name": "",
          "type": "string"
        }
      ],
      "name": "_hashes",
      "outputs": [
        {
          "internalType": "uint256",
          "name": "",
          "type": "uint256"
        }
      ],
      "stateMutability": "view",
      "type": "function"
    },
    {
      "inputs": [
        {
          "internalType": "uint256",
          "name": "",
          "type": "uint256"
        }
      ],
      "name": "_prices",
      "outputs": [
        {
          "internalType": "uint256",
          "name": "",
          "type": "uint256"
        }
      ],
      "stateMutability": "view",
      "type": "function"
    },
    {
      "inputs": [],
      "name": "_tokenCounter",
      "outputs": [
        {
          "internalType": "uint256",
          "name": "",
          "type": "uint256"
        }
      ],
      "stateMutability": "view",
      "type": "function"
    },
    {
      "inputs": [
        {
          "internalType": "address",
          "name": "to",
          "type": "address"
        },
        {
          "internalType": "uint256",
          "name": "tokenId",
          "type": "uint256"
        }
      ],
      "name": "approve",
      "outputs": [],
      "stateMutability": "nonpayable",
      "type": "function"
    },
    {
      "inputs": [
        {
          "internalType": "address",
          "name": "owner",
          "type": "address"
        }
      ],
      "name": "balanceOf",
      "outputs": [
        {
          "internalType": "uint256",
          "name": "",
          "type": "uint256"
        }
      ],
      "stateMutability": "view",
      "type": "function"
    },
    {
      "inputs": [
        {
          "internalType": "uint256",
          "name": "tokenId",
          "type": "uint256"
        }
      ],
      "name": "getApproved",
      "outputs": [
        {
          "internalType": "address",
          "name": "",
          "type": "address"
        }
      ],
      "stateMutability": "view",
      "type": "function"
    },
    {
      "inputs": [
        {
          "internalType": "address",
          "name": "owner",
          "type": "address"
        },
        {
          "internalType": "address",
          "name": "operator",
          "type": "address"
        }
      ],
      "name": "isApprovedForAll",
      "outputs": [
        {
          "internalType": "bool",
          "name": "",
          "type": "bool"
        }
      ],
      "stateMutability": "view",
      "type": "function"
    },
    {
      "inputs": [],
      "name": "name",
      "outputs": [
        {
          "internalType": "string",
          "name": "",
          "type": "string"
        }
      ],
      "stateMutability": "view",
      "type": "function"
    },
    {
      "inputs": [],
      "name": "owner",
      "outputs": [
        {
          "internalType": "address",
          "name": "",
          "type": "address"
        }
      ],
      "stateMutability": "view",
      "type": "function"
    },
    {
      "inputs": [
        {
          "internalType": "uint256",
          "name": "tokenId",
          "type": "uint256"
        }
      ],
      "name": "ownerOf",
      "outputs": [
        {
          "internalType": "address",
          "name": "",
          "type": "address"
        }
      ],
      "stateMutability": "view",
      "type": "function"
    },
    {
      "inputs": [],
      "name": "renounceOwnership",
      "outputs": [],
      "stateMutability": "nonpayable",
      "type": "function"
    },
    {
      "inputs": [
        {
          "internalType": "address",
          "name": "from",
          "type": "address"
        },
        {
          "internalType": "address",
          "name": "to",
          "type": "address"
        },
        {
          "internalType": "uint256",
          "name": "tokenId",
          "type": "uint256"
        }
      ],
      "name": "safeTransferFrom",
      "outputs": [],
      "stateMutability": "nonpayable",
      "type": "function"
    },
    {
      "inputs": [
        {
          "internalType": "address",
          "name": "from",
          "type": "address"
        },
        {
          "internalType": "address",
          "name": "to",
          "type": "address"
        },
        {
          "internalType": "uint256",
          "name": "tokenId",
          "type": "uint256"
        },
        {
          "internalType": "bytes",
          "name": "_data",
          "type": "bytes"
        }
      ],
      "name": "safeTransferFrom",
      "outputs": [],
      "stateMutability": "nonpayable",
      "type": "function"
    },
    {
      "inputs": [
        {
          "internalType": "address",
          "name": "operator",
          "type": "address"
        },
        {
          "internalType": "bool",
          "name": "approved",
          "type": "bool"
        }
      ],
      "name": "setApprovalForAll",
      "outputs": [],
      "stateMutability": "nonpayable",
      "type": "function"
    },
    {
      "inputs": [
        {
          "internalType": "bytes4",
          "name": "interfaceId",
          "type": "bytes4"
        }
      ],
      "name": "supportsInterface",
      "outputs": [
        {
          "internalType": "bool",
          "name": "",
          "type": "bool"
        }
      ],
      "stateMutability": "view",
      "type": "function"
    },
    {
      "inputs": [],
      "name": "symbol",
      "outputs": [
        {
          "internalType": "string",
          "name": "",
          "type": "string"
        }
      ],
      "stateMutability": "view",
      "type": "function"
    },
    {
      "inputs": [
        {
          "internalType": "uint256",
          "name": "tokenId",
          "type": "uint256"
        }
      ],
      "name": "tokenURI",
      "outputs": [
        {
          "internalType": "string",
          "name": "",
          "type": "string"
        }
      ],
      "stateMutability": "view",
      "type": "function"
    },
    {
      "inputs": [
        {
          "internalType": "address",
          "name": "from",
          "type": "address"
        },
        {
          "internalType": "address",
          "name": "to",
          "type": "address"
        },
        {
          "internalType": "uint256",
          "name": "tokenId",
          "type": "uint256"
        }
      ],
      "name": "transferFrom",
      "outputs": [],
      "stateMutability": "nonpayable",
      "type": "function"
    },
    {
      "inputs": [
        {
          "internalType": "address",
          "name": "newOwner",
          "type": "address"
        }
      ],
      "name": "transferOwnership",
      "outputs": [],
      "stateMutability": "nonpayable",
      "type": "function"
    },
    {
      "inputs": [
        {
          "internalType": "string",
          "name": "_hash",
          "type": "string"
        },
        {
          "internalType": "uint256",
          "name": "_price",
          "type": "uint256"
        }
      ],
      "name": "mintPGN",
      "outputs": [
        {
          "internalType": "uint256",
          "name": "",
          "type": "uint256"
        }
      ],
      "stateMutability": "nonpayable",
      "type": "function"
    },
    {
      "inputs": [
        {
          "internalType": "uint256",
          "name": "_tokenID",
          "type": "uint256"
        }
      ],
      "name": "vendingMachine",
      "outputs": [],
      "stateMutability": "payable",
      "type": "function"
    },
    {
      "inputs": [],
      "name": "withdraw",
      "outputs": [],
      "stateMutability": "nonpayable",
      "type": "function"
    },
    {
      "inputs": [
        {
          "internalType": "address",
          "name": "",
          "type": "address"
        },
        {
          "internalType": "address",
          "name": "",
          "type": "address"
        },
        {
          "internalType": "uint256",
          "name": "",
          "type": "uint256"
        },
        {
          "internalType": "bytes",
          "name": "",
          "type": "bytes"
        }
      ],
      "name": "onERC721Received",
      "outputs": [
        {
          "internalType": "bytes4",
          "name": "",
          "type": "bytes4"
        }
      ],
      "stateMutability": "nonpayable",
      "type": "function"
    },
    {
      "inputs": [
        {
          "internalType": "uint256",
          "name": "_tokenID",
          "type": "uint256"
        },
        {
          "internalType": "uint256",
          "name": "_price",
          "type": "uint256"
        }
      ],
      "name": "changePrice",
      "outputs": [],
      "stateMutability": "nonpayable",
      "type": "function"
    }
  ],
  "bytecode": "0x60806040523480156200001157600080fd5b506040518060400160405280600981526020017f5061776e636861696e00000000000000000000000000000000000000000000008152506040518060400160405280600481526020017f5041574e0000000000000000000000000000000000000000000000000000000081525081600090805190602001906200009692919062000179565b508060019080519060200190620000af92919062000179565b5050506000620000c46200017160201b60201c565b905080600760006101000a81548173ffffffffffffffffffffffffffffffffffffffff021916908373ffffffffffffffffffffffffffffffffffffffff1602179055508073ffffffffffffffffffffffffffffffffffffffff16600073ffffffffffffffffffffffffffffffffffffffff167f8be0079c531659141344cd1fd0a4f28419497f9722a3daafe3b4186f6b6457e060405160405180910390a35060006008819055506200028e565b600033905090565b828054620001879062000229565b90600052602060002090601f016020900481019282620001ab5760008555620001f7565b82601f10620001c657805160ff1916838001178555620001f7565b82800160010185558215620001f7579182015b82811115620001f6578251825591602001919060010190620001d9565b5b5090506200020691906200020a565b5090565b5b80821115620002255760008160009055506001016200020b565b5090565b600060028204905060018216806200024257607f821691505b602082108114156200025957620002586200025f565b5b50919050565b7f4e487b7100000000000000000000000000000000000000000000000000000000600052602260045260246000fd5b613b1c806200029e6000396000f3fe60806040526004361061014b5760003560e01c80638da5cb5b116100b6578063c87b56dd1161006f578063c87b56dd1461048e578063d4143046146104cb578063d785e83714610508578063e985e9c514610524578063f2fde38b14610561578063fe776dd01461058a5761014b565b80638da5cb5b146103925780639230b2bc146103bd57806395d89b41146103e8578063a22cb46514610413578063b3de019c1461043c578063b88d4fde146104655761014b565b8063289fc19f11610108578063289fc19f146102845780633ccfd60b146102c157806342842e0e146102d85780636352211e1461030157806370a082311461033e578063715018a61461037b5761014b565b806301ffc9a71461015057806306fdde031461018d578063081812fc146101b8578063095ea7b3146101f5578063150b7a021461021e57806323b872dd1461025b575b600080fd5b34801561015c57600080fd5b50610177600480360381019061017291906126bc565b6105c7565b6040516101849190612ce6565b60405180910390f35b34801561019957600080fd5b506101a26106a9565b6040516101af9190612d1c565b60405180910390f35b3480156101c457600080fd5b506101df60048036038101906101da91906127a3565b61073b565b6040516101ec9190612c7f565b60405180910390f35b34801561020157600080fd5b5061021c60048036038101906102179190612680565b6107c0565b005b34801561022a57600080fd5b50610245600480360381019061024091906125c9565b6108d8565b6040516102529190612d01565b60405180910390f35b34801561026757600080fd5b50610282600480360381019061027d919061257a565b6108ec565b005b34801561029057600080fd5b506102ab60048036038101906102a6919061270e565b61094c565b6040516102b8919061301e565b60405180910390f35b3480156102cd57600080fd5b506102d661097a565b005b3480156102e457600080fd5b506102ff60048036038101906102fa919061257a565b610ae8565b005b34801561030d57600080fd5b50610328600480360381019061032391906127a3565b610b08565b6040516103359190612c7f565b60405180910390f35b34801561034a57600080fd5b5061036560048036038101906103609190612515565b610bba565b604051610372919061301e565b60405180910390f35b34801561038757600080fd5b50610390610c72565b005b34801561039e57600080fd5b506103a7610daf565b6040516103b49190612c7f565b60405180910390f35b3480156103c957600080fd5b506103d2610dd9565b6040516103df919061301e565b60405180910390f35b3480156103f457600080fd5b506103fd610ddf565b60405161040a9190612d1c565b60405180910390f35b34801561041f57600080fd5b5061043a60048036038101906104359190612644565b610e71565b005b34801561044857600080fd5b50610463600480360381019061045e91906127cc565b610ff2565b005b34801561047157600080fd5b5061048c600480360381019061048791906125c9565b61108a565b005b34801561049a57600080fd5b506104b560048036038101906104b091906127a3565b6110ec565b6040516104c29190612d1c565b60405180910390f35b3480156104d757600080fd5b506104f260048036038101906104ed919061274f565b61123e565b6040516104ff919061301e565b60405180910390f35b610522600480360381019061051d91906127a3565b6113cf565b005b34801561053057600080fd5b5061054b6004803603810190610546919061253e565b6114df565b6040516105589190612ce6565b60405180910390f35b34801561056d57600080fd5b5061058860048036038101906105839190612515565b611573565b005b34801561059657600080fd5b506105b160048036038101906105ac91906127a3565b61171f565b6040516105be919061301e565b60405180910390f35b60007f80ac58cd000000000000000000000000000000000000000000000000000000007bffffffffffffffffffffffffffffffffffffffffffffffffffffffff1916827bffffffffffffffffffffffffffffffffffffffffffffffffffffffff1916148061069257507f5b5e139f000000000000000000000000000000000000000000000000000000007bffffffffffffffffffffffffffffffffffffffffffffffffffffffff1916827bffffffffffffffffffffffffffffffffffffffffffffffffffffffff1916145b806106a257506106a182611737565b5b9050919050565b6060600080546106b8906132a8565b80601f01602080910402602001604051908101604052809291908181526020018280546106e4906132a8565b80156107315780601f1061070657610100808354040283529160200191610731565b820191906000526020600020905b81548152906001019060200180831161071457829003601f168201915b5050505050905090565b6000610746826117a1565b610785576040517f08c379a000000000000000000000000000000000000000000000000000000000815260040161077c90612ede565b60405180910390fd5b6004600083815260200190815260200160002060009054906101000a900473ffffffffffffffffffffffffffffffffffffffff169050919050565b60006107cb82610b08565b90508073ffffffffffffffffffffffffffffffffffffffff168373ffffffffffffffffffffffffffffffffffffffff16141561083c576040517f08c379a000000000000000000000000000000000000000000000000000000000815260040161083390612f5e565b60405180910390fd5b8073ffffffffffffffffffffffffffffffffffffffff1661085b61180d565b73ffffffffffffffffffffffffffffffffffffffff16148061088a57506108898161088461180d565b6114df565b5b6108c9576040517f08c379a00000000000000000000000000000000000000000000000000000000081526004016108c090612dfe565b60405180910390fd5b6108d38383611815565b505050565b600063150b7a0260e01b9050949350505050565b6108fd6108f761180d565b826118ce565b61093c576040517f08c379a000000000000000000000000000000000000000000000000000000000815260040161093390612f7e565b60405180910390fd5b6109478383836119ac565b505050565b6009818051602081018201805184825260208301602085012081835280955050505050506000915090505481565b61098261180d565b73ffffffffffffffffffffffffffffffffffffffff166109a0610daf565b73ffffffffffffffffffffffffffffffffffffffff16146109f6576040517f08c379a00000000000000000000000000000000000000000000000000000000081526004016109ed90612efe565b60405180910390fd5b60004711610a39576040517f08c379a0000000000000000000000000000000000000000000000000000000008152600401610a3090612ffe565b60405180910390fd5b60003373ffffffffffffffffffffffffffffffffffffffff1647604051610a5f90612c6a565b60006040518083038185875af1925050503d8060008114610a9c576040519150601f19603f3d011682016040523d82523d6000602084013e610aa1565b606091505b5050905080610ae5576040517f08c379a0000000000000000000000000000000000000000000000000000000008152600401610adc90612fbe565b60405180910390fd5b50565b610b038383836040518060200160405280600081525061108a565b505050565b6000806002600084815260200190815260200160002060009054906101000a900473ffffffffffffffffffffffffffffffffffffffff169050600073ffffffffffffffffffffffffffffffffffffffff168173ffffffffffffffffffffffffffffffffffffffff161415610bb1576040517f08c379a0000000000000000000000000000000000000000000000000000000008152600401610ba890612e3e565b60405180910390fd5b80915050919050565b60008073ffffffffffffffffffffffffffffffffffffffff168273ffffffffffffffffffffffffffffffffffffffff161415610c2b576040517f08c379a0000000000000000000000000000000000000000000000000000000008152600401610c2290612e1e565b60405180910390fd5b600360008373ffffffffffffffffffffffffffffffffffffffff1673ffffffffffffffffffffffffffffffffffffffff168152602001908152602001600020549050919050565b610c7a61180d565b73ffffffffffffffffffffffffffffffffffffffff16610c98610daf565b73ffffffffffffffffffffffffffffffffffffffff1614610cee576040517f08c379a0000000000000000000000000000000000000000000000000000000008152600401610ce590612efe565b60405180910390fd5b600073ffffffffffffffffffffffffffffffffffffffff16600760009054906101000a900473ffffffffffffffffffffffffffffffffffffffff1673ffffffffffffffffffffffffffffffffffffffff167f8be0079c531659141344cd1fd0a4f28419497f9722a3daafe3b4186f6b6457e060405160405180910390a36000600760006101000a81548173ffffffffffffffffffffffffffffffffffffffff021916908373ffffffffffffffffffffffffffffffffffffffff160217905550565b6000600760009054906101000a900473ffffffffffffffffffffffffffffffffffffffff16905090565b60085481565b606060018054610dee906132a8565b80601f0160208091040260200160405190810160405280929190818152602001828054610e1a906132a8565b8015610e675780601f10610e3c57610100808354040283529160200191610e67565b820191906000526020600020905b815481529060010190602001808311610e4a57829003601f168201915b5050505050905090565b610e7961180d565b73ffffffffffffffffffffffffffffffffffffffff168273ffffffffffffffffffffffffffffffffffffffff161415610ee7576040517f08c379a0000000000000000000000000000000000000000000000000000000008152600401610ede90612dbe565b60405180910390fd5b8060056000610ef461180d565b73ffffffffffffffffffffffffffffffffffffffff1673ffffffffffffffffffffffffffffffffffffffff16815260200190815260200160002060008473ffffffffffffffffffffffffffffffffffffffff1673ffffffffffffffffffffffffffffffffffffffff16815260200190815260200160002060006101000a81548160ff0219169083151502179055508173ffffffffffffffffffffffffffffffffffffffff16610fa161180d565b73ffffffffffffffffffffffffffffffffffffffff167f17307eab39ab6107e8899845ad3d59bd9653f200f220920489ca2b5937696c3183604051610fe69190612ce6565b60405180910390a35050565b610ffa61180d565b73ffffffffffffffffffffffffffffffffffffffff16611018610daf565b73ffffffffffffffffffffffffffffffffffffffff161461106e576040517f08c379a000000000000000000000000000000000000000000000000000000000815260040161106590612efe565b60405180910390fd5b80600a6000848152602001908152602001600020819055505050565b61109b61109561180d565b836118ce565b6110da576040517f08c379a00000000000000000000000000000000000000000000000000000000081526004016110d190612f7e565b60405180910390fd5b6110e684848484611c08565b50505050565b60606110f7826117a1565b611136576040517f08c379a000000000000000000000000000000000000000000000000000000000815260040161112d90612ebe565b60405180910390fd5b6000600660008481526020019081526020016000208054611156906132a8565b80601f0160208091040260200160405190810160405280929190818152602001828054611182906132a8565b80156111cf5780601f106111a4576101008083540402835291602001916111cf565b820191906000526020600020905b8154815290600101906020018083116111b257829003601f168201915b5050505050905060006111e0611c64565b90506000815114156111f6578192505050611239565b60008251111561122b578082604051602001611213929190612c46565b60405160208183030381529060405292505050611239565b61123484611c7b565b925050505b919050565b600061124861180d565b73ffffffffffffffffffffffffffffffffffffffff16611266610daf565b73ffffffffffffffffffffffffffffffffffffffff16146112bc576040517f08c379a00000000000000000000000000000000000000000000000000000000081526004016112b390612efe565b60405180910390fd5b60016009846040516112ce9190612c2f565b908152602001604051809103902054141561131e576040517f08c379a000000000000000000000000000000000000000000000000000000000815260040161131590612fde565b60405180910390fd5b600160085461132d9190613137565b60088190555061133f30600854611d22565b61134b60085484611d40565b600160098460405161135d9190612c2f565b90815260200160405180910390208190555081600a60006008548152602001908152602001600020819055507f0930d5cc1d8162f59cde20a12fdc913d0072915ecfbdf4b1ed9e4f10f0fb4792600854836040516113bc929190613039565b60405180910390a1600854905092915050565b600a6000828152602001908152602001600020543414611424576040517f08c379a000000000000000000000000000000000000000000000000000000000815260040161141b90612f9e565b60405180910390fd5b3073ffffffffffffffffffffffffffffffffffffffff1661144482610b08565b73ffffffffffffffffffffffffffffffffffffffff161461149a576040517f08c379a000000000000000000000000000000000000000000000000000000000815260040161149190612e7e565b60405180910390fd5b6114a53033836119ac565b7ffd5e60d339fe12c15225961ffc5e18b853411f5ca458c38acf2946ac25779caf816040516114d4919061301e565b60405180910390a150565b6000600560008473ffffffffffffffffffffffffffffffffffffffff1673ffffffffffffffffffffffffffffffffffffffff16815260200190815260200160002060008373ffffffffffffffffffffffffffffffffffffffff1673ffffffffffffffffffffffffffffffffffffffff16815260200190815260200160002060009054906101000a900460ff16905092915050565b61157b61180d565b73ffffffffffffffffffffffffffffffffffffffff16611599610daf565b73ffffffffffffffffffffffffffffffffffffffff16146115ef576040517f08c379a00000000000000000000000000000000000000000000000000000000081526004016115e690612efe565b60405180910390fd5b600073ffffffffffffffffffffffffffffffffffffffff168173ffffffffffffffffffffffffffffffffffffffff16141561165f576040517f08c379a000000000000000000000000000000000000000000000000000000000815260040161165690612d5e565b60405180910390fd5b8073ffffffffffffffffffffffffffffffffffffffff16600760009054906101000a900473ffffffffffffffffffffffffffffffffffffffff1673ffffffffffffffffffffffffffffffffffffffff167f8be0079c531659141344cd1fd0a4f28419497f9722a3daafe3b4186f6b6457e060405160405180910390a380600760006101000a81548173ffffffffffffffffffffffffffffffffffffffff021916908373ffffffffffffffffffffffffffffffffffffffff16021790555050565b600a6020528060005260406000206000915090505481565b60007f01ffc9a7000000000000000000000000000000000000000000000000000000007bffffffffffffffffffffffffffffffffffffffffffffffffffffffff1916827bffffffffffffffffffffffffffffffffffffffffffffffffffffffff1916149050919050565b60008073ffffffffffffffffffffffffffffffffffffffff166002600084815260200190815260200160002060009054906101000a900473ffffffffffffffffffffffffffffffffffffffff1673ffffffffffffffffffffffffffffffffffffffff1614159050919050565b600033905090565b816004600083815260200190815260200160002060006101000a81548173ffffffffffffffffffffffffffffffffffffffff021916908373ffffffffffffffffffffffffffffffffffffffff160217905550808273ffffffffffffffffffffffffffffffffffffffff1661188883610b08565b73ffffffffffffffffffffffffffffffffffffffff167f8c5be1e5ebec7d5bd14f71427d1e84f3dd0314c0f7b2291e5b200ac8c7c3b92560405160405180910390a45050565b60006118d9826117a1565b611918576040517f08c379a000000000000000000000000000000000000000000000000000000000815260040161190f90612dde565b60405180910390fd5b600061192383610b08565b90508073ffffffffffffffffffffffffffffffffffffffff168473ffffffffffffffffffffffffffffffffffffffff16148061199257508373ffffffffffffffffffffffffffffffffffffffff1661197a8461073b565b73ffffffffffffffffffffffffffffffffffffffff16145b806119a357506119a281856114df565b5b91505092915050565b8273ffffffffffffffffffffffffffffffffffffffff166119cc82610b08565b73ffffffffffffffffffffffffffffffffffffffff1614611a22576040517f08c379a0000000000000000000000000000000000000000000000000000000008152600401611a1990612f1e565b60405180910390fd5b600073ffffffffffffffffffffffffffffffffffffffff168273ffffffffffffffffffffffffffffffffffffffff161415611a92576040517f08c379a0000000000000000000000000000000000000000000000000000000008152600401611a8990612d9e565b60405180910390fd5b611a9d838383611db4565b611aa8600082611815565b6001600360008573ffffffffffffffffffffffffffffffffffffffff1673ffffffffffffffffffffffffffffffffffffffff1681526020019081526020016000206000828254611af891906131be565b925050819055506001600360008473ffffffffffffffffffffffffffffffffffffffff1673ffffffffffffffffffffffffffffffffffffffff1681526020019081526020016000206000828254611b4f9190613137565b92505081905550816002600083815260200190815260200160002060006101000a81548173ffffffffffffffffffffffffffffffffffffffff021916908373ffffffffffffffffffffffffffffffffffffffff160217905550808273ffffffffffffffffffffffffffffffffffffffff168473ffffffffffffffffffffffffffffffffffffffff167fddf252ad1be2c89b69c2b068fc378daa952ba7f163c4a11628f55a4df523b3ef60405160405180910390a4505050565b611c138484846119ac565b611c1f84848484611db9565b611c5e576040517f08c379a0000000000000000000000000000000000000000000000000000000008152600401611c5590612d3e565b60405180910390fd5b50505050565b606060405180602001604052806000815250905090565b6060611c86826117a1565b611cc5576040517f08c379a0000000000000000000000000000000000000000000000000000000008152600401611cbc90612f3e565b60405180910390fd5b6000611ccf611c64565b90506000815111611cef5760405180602001604052806000815250611d1a565b80611cf984611f50565b604051602001611d0a929190612c46565b6040516020818303038152906040525b915050919050565b611d3c8282604051806020016040528060008152506120fd565b5050565b611d49826117a1565b611d88576040517f08c379a0000000000000000000000000000000000000000000000000000000008152600401611d7f90612e5e565b60405180910390fd5b80600660008481526020019081526020016000209080519060200190611daf929190612339565b505050565b505050565b6000611dda8473ffffffffffffffffffffffffffffffffffffffff16612158565b15611f43578373ffffffffffffffffffffffffffffffffffffffff1663150b7a02611e0361180d565b8786866040518563ffffffff1660e01b8152600401611e259493929190612c9a565b602060405180830381600087803b158015611e3f57600080fd5b505af1925050508015611e7057506040513d601f19601f82011682018060405250810190611e6d91906126e5565b60015b611ef3573d8060008114611ea0576040519150601f19603f3d011682016040523d82523d6000602084013e611ea5565b606091505b50600081511415611eeb576040517f08c379a0000000000000000000000000000000000000000000000000000000008152600401611ee290612d3e565b60405180910390fd5b805181602001fd5b63150b7a0260e01b7bffffffffffffffffffffffffffffffffffffffffffffffffffffffff1916817bffffffffffffffffffffffffffffffffffffffffffffffffffffffff191614915050611f48565b600190505b949350505050565b60606000821415611f98576040518060400160405280600181526020017f300000000000000000000000000000000000000000000000000000000000000081525090506120f8565b600082905060005b60008214611fca578080611fb39061330b565b915050600a82611fc3919061318d565b9150611fa0565b60008167ffffffffffffffff81111561200c577f4e487b7100000000000000000000000000000000000000000000000000000000600052604160045260246000fd5b6040519080825280601f01601f19166020018201604052801561203e5781602001600182028036833780820191505090505b5090505b600085146120f15760018261205791906131be565b9150600a856120669190613354565b60306120729190613137565b60f81b8183815181106120ae577f4e487b7100000000000000000000000000000000000000000000000000000000600052603260045260246000fd5b60200101907effffffffffffffffffffffffffffffffffffffffffffffffffffffffffffff1916908160001a905350600a856120ea919061318d565b9450612042565b8093505050505b919050565b612107838361216b565b6121146000848484611db9565b612153576040517f08c379a000000000000000000000000000000000000000000000000000000000815260040161214a90612d3e565b60405180910390fd5b505050565b600080823b905060008111915050919050565b600073ffffffffffffffffffffffffffffffffffffffff168273ffffffffffffffffffffffffffffffffffffffff1614156121db576040517f08c379a00000000000000000000000000000000000000000000000000000000081526004016121d290612e9e565b60405180910390fd5b6121e4816117a1565b15612224576040517f08c379a000000000000000000000000000000000000000000000000000000000815260040161221b90612d7e565b60405180910390fd5b61223060008383611db4565b6001600360008473ffffffffffffffffffffffffffffffffffffffff1673ffffffffffffffffffffffffffffffffffffffff16815260200190815260200160002060008282546122809190613137565b92505081905550816002600083815260200190815260200160002060006101000a81548173ffffffffffffffffffffffffffffffffffffffff021916908373ffffffffffffffffffffffffffffffffffffffff160217905550808273ffffffffffffffffffffffffffffffffffffffff16600073ffffffffffffffffffffffffffffffffffffffff167fddf252ad1be2c89b69c2b068fc378daa952ba7f163c4a11628f55a4df523b3ef60405160405180910390a45050565b828054612345906132a8565b90600052602060002090601f01602090048101928261236757600085556123ae565b82601f1061238057805160ff19168380011785556123ae565b828001600101855582156123ae579182015b828111156123ad578251825591602001919060010190612392565b5b5090506123bb91906123bf565b5090565b5b808211156123d85760008160009055506001016123c0565b5090565b60006123ef6123ea84613087565b613062565b90508281526020810184848401111561240757600080fd5b612412848285613266565b509392505050565b600061242d612428846130b8565b613062565b90508281526020810184848401111561244557600080fd5b612450848285613266565b509392505050565b60008135905061246781613a8a565b92915050565b60008135905061247c81613aa1565b92915050565b60008135905061249181613ab8565b92915050565b6000815190506124a681613ab8565b92915050565b600082601f8301126124bd57600080fd5b81356124cd8482602086016123dc565b91505092915050565b600082601f8301126124e757600080fd5b81356124f784826020860161241a565b91505092915050565b60008135905061250f81613acf565b92915050565b60006020828403121561252757600080fd5b600061253584828501612458565b91505092915050565b6000806040838503121561255157600080fd5b600061255f85828601612458565b925050602061257085828601612458565b9150509250929050565b60008060006060848603121561258f57600080fd5b600061259d86828701612458565b93505060206125ae86828701612458565b92505060406125bf86828701612500565b9150509250925092565b600080600080608085870312156125df57600080fd5b60006125ed87828801612458565b94505060206125fe87828801612458565b935050604061260f87828801612500565b925050606085013567ffffffffffffffff81111561262c57600080fd5b612638878288016124ac565b91505092959194509250565b6000806040838503121561265757600080fd5b600061266585828601612458565b92505060206126768582860161246d565b9150509250929050565b6000806040838503121561269357600080fd5b60006126a185828601612458565b92505060206126b285828601612500565b9150509250929050565b6000602082840312156126ce57600080fd5b60006126dc84828501612482565b91505092915050565b6000602082840312156126f757600080fd5b600061270584828501612497565b91505092915050565b60006020828403121561272057600080fd5b600082013567ffffffffffffffff81111561273a57600080fd5b612746848285016124d6565b91505092915050565b6000806040838503121561276257600080fd5b600083013567ffffffffffffffff81111561277c57600080fd5b612788858286016124d6565b925050602061279985828601612500565b9150509250929050565b6000602082840312156127b557600080fd5b60006127c384828501612500565b91505092915050565b600080604083850312156127df57600080fd5b60006127ed85828601612500565b92505060206127fe85828601612500565b9150509250929050565b612811816131f2565b82525050565b61282081613204565b82525050565b61282f81613210565b82525050565b6000612840826130e9565b61284a81856130ff565b935061285a818560208601613275565b61286381613441565b840191505092915050565b6000612879826130f4565b612883818561311b565b9350612893818560208601613275565b61289c81613441565b840191505092915050565b60006128b2826130f4565b6128bc818561312c565b93506128cc818560208601613275565b80840191505092915050565b60006128e560328361311b565b91506128f082613452565b604082019050919050565b600061290860268361311b565b9150612913826134a1565b604082019050919050565b600061292b601c8361311b565b9150612936826134f0565b602082019050919050565b600061294e60248361311b565b915061295982613519565b604082019050919050565b600061297160198361311b565b915061297c82613568565b602082019050919050565b6000612994602c8361311b565b915061299f82613591565b604082019050919050565b60006129b760388361311b565b91506129c2826135e0565b604082019050919050565b60006129da602a8361311b565b91506129e58261362f565b604082019050919050565b60006129fd60298361311b565b9150612a088261367e565b604082019050919050565b6000612a20602e8361311b565b9150612a2b826136cd565b604082019050919050565b6000612a4360228361311b565b9150612a4e8261371c565b604082019050919050565b6000612a6660208361311b565b9150612a718261376b565b602082019050919050565b6000612a8960318361311b565b9150612a9482613794565b604082019050919050565b6000612aac602c8361311b565b9150612ab7826137e3565b604082019050919050565b6000612acf60208361311b565b9150612ada82613832565b602082019050919050565b6000612af260298361311b565b9150612afd8261385b565b604082019050919050565b6000612b15602f8361311b565b9150612b20826138aa565b604082019050919050565b6000612b3860218361311b565b9150612b43826138f9565b604082019050919050565b6000612b5b600083613110565b9150612b6682613948565b600082019050919050565b6000612b7e60318361311b565b9150612b898261394b565b604082019050919050565b6000612ba160238361311b565b9150612bac8261399a565b604082019050919050565b6000612bc460178361311b565b9150612bcf826139e9565b602082019050919050565b6000612be760198361311b565b9150612bf282613a12565b602082019050919050565b6000612c0a60238361311b565b9150612c1582613a3b565b604082019050919050565b612c298161325c565b82525050565b6000612c3b82846128a7565b915081905092915050565b6000612c5282856128a7565b9150612c5e82846128a7565b91508190509392505050565b6000612c7582612b4e565b9150819050919050565b6000602082019050612c946000830184612808565b92915050565b6000608082019050612caf6000830187612808565b612cbc6020830186612808565b612cc96040830185612c20565b8181036060830152612cdb8184612835565b905095945050505050565b6000602082019050612cfb6000830184612817565b92915050565b6000602082019050612d166000830184612826565b92915050565b60006020820190508181036000830152612d36818461286e565b905092915050565b60006020820190508181036000830152612d57816128d8565b9050919050565b60006020820190508181036000830152612d77816128fb565b9050919050565b60006020820190508181036000830152612d978161291e565b9050919050565b60006020820190508181036000830152612db781612941565b9050919050565b60006020820190508181036000830152612dd781612964565b9050919050565b60006020820190508181036000830152612df781612987565b9050919050565b60006020820190508181036000830152612e17816129aa565b9050919050565b60006020820190508181036000830152612e37816129cd565b9050919050565b60006020820190508181036000830152612e57816129f0565b9050919050565b60006020820190508181036000830152612e7781612a13565b9050919050565b60006020820190508181036000830152612e9781612a36565b9050919050565b60006020820190508181036000830152612eb781612a59565b9050919050565b60006020820190508181036000830152612ed781612a7c565b9050919050565b60006020820190508181036000830152612ef781612a9f565b9050919050565b60006020820190508181036000830152612f1781612ac2565b9050919050565b60006020820190508181036000830152612f3781612ae5565b9050919050565b60006020820190508181036000830152612f5781612b08565b9050919050565b60006020820190508181036000830152612f7781612b2b565b9050919050565b60006020820190508181036000830152612f9781612b71565b9050919050565b60006020820190508181036000830152612fb781612b94565b9050919050565b60006020820190508181036000830152612fd781612bb7565b9050919050565b60006020820190508181036000830152612ff781612bda565b9050919050565b6000602082019050818103600083015261301781612bfd565b9050919050565b60006020820190506130336000830184612c20565b92915050565b600060408201905061304e6000830185612c20565b61305b6020830184612c20565b9392505050565b600061306c61307d565b905061307882826132da565b919050565b6000604051905090565b600067ffffffffffffffff8211156130a2576130a1613412565b5b6130ab82613441565b9050602081019050919050565b600067ffffffffffffffff8211156130d3576130d2613412565b5b6130dc82613441565b9050602081019050919050565b600081519050919050565b600081519050919050565b600082825260208201905092915050565b600081905092915050565b600082825260208201905092915050565b600081905092915050565b60006131428261325c565b915061314d8361325c565b9250827fffffffffffffffffffffffffffffffffffffffffffffffffffffffffffffffff0382111561318257613181613385565b5b828201905092915050565b60006131988261325c565b91506131a38361325c565b9250826131b3576131b26133b4565b5b828204905092915050565b60006131c98261325c565b91506131d48361325c565b9250828210156131e7576131e6613385565b5b828203905092915050565b60006131fd8261323c565b9050919050565b60008115159050919050565b60007fffffffff0000000000000000000000000000000000000000000000000000000082169050919050565b600073ffffffffffffffffffffffffffffffffffffffff82169050919050565b6000819050919050565b82818337600083830152505050565b60005b83811015613293578082015181840152602081019050613278565b838111156132a2576000848401525b50505050565b600060028204905060018216806132c057607f821691505b602082108114156132d4576132d36133e3565b5b50919050565b6132e382613441565b810181811067ffffffffffffffff8211171561330257613301613412565b5b80604052505050565b60006133168261325c565b91507fffffffffffffffffffffffffffffffffffffffffffffffffffffffffffffffff82141561334957613348613385565b5b600182019050919050565b600061335f8261325c565b915061336a8361325c565b92508261337a576133796133b4565b5b828206905092915050565b7f4e487b7100000000000000000000000000000000000000000000000000000000600052601160045260246000fd5b7f4e487b7100000000000000000000000000000000000000000000000000000000600052601260045260246000fd5b7f4e487b7100000000000000000000000000000000000000000000000000000000600052602260045260246000fd5b7f4e487b7100000000000000000000000000000000000000000000000000000000600052604160045260246000fd5b6000601f19601f8301169050919050565b7f4552433732313a207472616e7366657220746f206e6f6e20455243373231526560008201527f63656976657220696d706c656d656e7465720000000000000000000000000000602082015250565b7f4f776e61626c653a206e6577206f776e657220697320746865207a65726f206160008201527f6464726573730000000000000000000000000000000000000000000000000000602082015250565b7f4552433732313a20746f6b656e20616c7265616479206d696e74656400000000600082015250565b7f4552433732313a207472616e7366657220746f20746865207a65726f2061646460008201527f7265737300000000000000000000000000000000000000000000000000000000602082015250565b7f4552433732313a20617070726f766520746f2063616c6c657200000000000000600082015250565b7f4552433732313a206f70657261746f7220717565727920666f72206e6f6e657860008201527f697374656e7420746f6b656e0000000000000000000000000000000000000000602082015250565b7f4552433732313a20617070726f76652063616c6c6572206973206e6f74206f7760008201527f6e6572206e6f7220617070726f76656420666f7220616c6c0000000000000000602082015250565b7f4552433732313a2062616c616e636520717565727920666f7220746865207a6560008201527f726f206164647265737300000000000000000000000000000000000000000000602082015250565b7f4552433732313a206f776e657220717565727920666f72206e6f6e657869737460008201527f656e7420746f6b656e0000000000000000000000000000000000000000000000602082015250565b7f45524337323155524953746f726167653a2055524920736574206f66206e6f6e60008201527f6578697374656e7420746f6b656e000000000000000000000000000000000000602082015250565b7f5468697320746f6b656e206973206e6f206c6f6e67657220617661696c61626c60008201527f6521000000000000000000000000000000000000000000000000000000000000602082015250565b7f4552433732313a206d696e7420746f20746865207a65726f2061646472657373600082015250565b7f45524337323155524953746f726167653a2055524920717565727920666f722060008201527f6e6f6e6578697374656e7420746f6b656e000000000000000000000000000000602082015250565b7f4552433732313a20617070726f76656420717565727920666f72206e6f6e657860008201527f697374656e7420746f6b656e0000000000000000000000000000000000000000602082015250565b7f4f776e61626c653a2063616c6c6572206973206e6f7420746865206f776e6572600082015250565b7f4552433732313a207472616e73666572206f6620746f6b656e2074686174206960008201527f73206e6f74206f776e0000000000000000000000000000000000000000000000602082015250565b7f4552433732314d657461646174613a2055524920717565727920666f72206e6f60008201527f6e6578697374656e7420746f6b656e0000000000000000000000000000000000602082015250565b7f4552433732313a20617070726f76616c20746f2063757272656e74206f776e6560008201527f7200000000000000000000000000000000000000000000000000000000000000602082015250565b50565b7f4552433732313a207472616e736665722063616c6c6572206973206e6f74206f60008201527f776e6572206e6f7220617070726f766564000000000000000000000000000000602082015250565b7f596f7520646964206e6f74207061792074686520636f727265637420616d6f7560008201527f6e74210000000000000000000000000000000000000000000000000000000000602082015250565b7f536f6d657468696e672077656e742077726f6e672e2e2e000000000000000000600082015250565b7f54686973206861736820616c7265616479206578697374732100000000000000600082015250565b7f596f7520646f6e2774206861766520616e792045544820746f2077697468647260008201527f6177210000000000000000000000000000000000000000000000000000000000602082015250565b613a93816131f2565b8114613a9e57600080fd5b50565b613aaa81613204565b8114613ab557600080fd5b50565b613ac181613210565b8114613acc57600080fd5b50565b613ad88161325c565b8114613ae357600080fd5b5056fea26469706673582212205e4974ff1fe9d23b16bb83fceb843d0b64082ccb3edb6e4cb5829e7b4ead334764736f6c63430008040033",
  "immutableReferences": {},
  "source": "// SPDX-License-Identifier: MIT\n\npragma solidity ^0.8.0;\n\nimport \"@openzeppelin/contracts/token/ERC721/extensions/ERC721URIStorage.sol\";\nimport \"@openzeppelin/contracts/token/ERC721/IERC721Receiver.sol\";\nimport \"@openzeppelin/contracts/access/Ownable.sol\";\n\ncontract Pawnchain is ERC721URIStorage, Ownable, IERC721Receiver {\n    uint256 public  _tokenCounter;\n    \n    mapping(string => uint256) public _hashes;\n    mapping(uint256 => uint256) public _prices;\n\n    event tokenMinted(uint256 tokenID, uint256 price);\n    event tokenBought(uint256 tokenID);\n\n    constructor() ERC721(\"Pawnchain\", \"PAWN\") Ownable() {\n        _tokenCounter = 0;\n    }\n    \n    /**\n        @dev Mint an NFT representing a chess game \n\n        @param _hash - hash of PGN data hosted on IPFS\n        @param _price - price to associate with game collectible\n     */\n    function mintPGN(string memory _hash, uint256 _price) external onlyOwner returns (uint256) {\n        require(_hashes[_hash] != 1, \"This hash already exists!\");\n\n        _tokenCounter = _tokenCounter + 1;\n\n        _safeMint(address(this), _tokenCounter);\n        _setTokenURI(_tokenCounter, _hash);\n\n        _hashes[_hash] = 1;\n        _prices[_tokenCounter] = _price;\n\n        emit tokenMinted(_tokenCounter, _price);\n\n        return _tokenCounter;\n    }\n\n    /**\n        @dev Select a token to buy from those available\n\n        @param _tokenID - token desired to be bought\n     */\n    function vendingMachine(uint256 _tokenID) external payable {\n        require(msg.value == _prices[_tokenID], \"You did not pay the correct amount!\");\n        require(ownerOf(_tokenID) == address(this), \"This token is no longer available!\");\n\n        _transfer(address(this), msg.sender, _tokenID);\n\n        emit tokenBought(_tokenID);\n    }\n\n    /**\n        @dev Withdraw funds from contract\n     */\n    function withdraw() external onlyOwner {\n        require(address(this).balance > 0, \"You don't have any ETH to withdraw!\");\n\n        (bool success,) = payable(msg.sender).call{value: address(this).balance}(\"\");\n        require(success, \"Something went wrong...\");\n    }\n\n    /**\n        @dev Contract can handle receiving its own tokens\n     */\n    function onERC721Received(address, address, uint256, bytes memory)\n        public\n        virtual\n        override\n        returns (bytes4) {\n            return this.onERC721Received.selector;\n        }\n\n    /**\n        @dev Change price of token\n\n        @param _tokenID -- tokenID to change the price of\n        @param _price -- new price to set\n     */\n    function changePrice(uint256 _tokenID, uint256 _price) external onlyOwner {\n        _prices[_tokenID] = _price;\n    }\n}",
  "sourcePath": "/home/dave/pawnchain/contracts/Pawnchain.sol",
  "compiler": {
    "name": "solc",
    "version": "0.8.4+commit.c7e474f2.Emscripten.clang"
  },
  "schemaVersion": "3.3.4",
  "updatedAt": "2021-04-26T21:22:44.083Z",
  "devdoc": {
    "kind": "dev",
    "methods": {
      "approve(address,uint256)": {
        "details": "See {IERC721-approve}."
      },
      "balanceOf(address)": {
        "details": "See {IERC721-balanceOf}."
      },
      "changePrice(uint256,uint256)": {
        "details": "Change price of token",
        "params": {
          "_price": "-- new price to set",
          "_tokenID": "-- tokenID to change the price of"
        }
      },
      "getApproved(uint256)": {
        "details": "See {IERC721-getApproved}."
      },
      "isApprovedForAll(address,address)": {
        "details": "See {IERC721-isApprovedForAll}."
      },
      "mintPGN(string,uint256)": {
        "details": "Mint an NFT representing a chess game ",
        "params": {
          "_hash": "- hash of PGN data hosted on IPFS",
          "_price": "- price to associate with game collectible"
        }
      },
      "name()": {
        "details": "See {IERC721Metadata-name}."
      },
      "onERC721Received(address,address,uint256,bytes)": {
        "details": "Contract can handle receiving its own tokens"
      },
      "owner()": {
        "details": "Returns the address of the current owner."
      },
      "ownerOf(uint256)": {
        "details": "See {IERC721-ownerOf}."
      },
      "renounceOwnership()": {
        "details": "Leaves the contract without owner. It will not be possible to call `onlyOwner` functions anymore. Can only be called by the current owner. NOTE: Renouncing ownership will leave the contract without an owner, thereby removing any functionality that is only available to the owner."
      },
      "safeTransferFrom(address,address,uint256)": {
        "details": "See {IERC721-safeTransferFrom}."
      },
      "safeTransferFrom(address,address,uint256,bytes)": {
        "details": "See {IERC721-safeTransferFrom}."
      },
      "setApprovalForAll(address,bool)": {
        "details": "See {IERC721-setApprovalForAll}."
      },
      "supportsInterface(bytes4)": {
        "details": "See {IERC165-supportsInterface}."
      },
      "symbol()": {
        "details": "See {IERC721Metadata-symbol}."
      },
      "tokenURI(uint256)": {
        "details": "See {IERC721Metadata-tokenURI}."
      },
      "transferFrom(address,address,uint256)": {
        "details": "See {IERC721-transferFrom}."
      },
      "transferOwnership(address)": {
        "details": "Transfers ownership of the contract to a new account (`newOwner`). Can only be called by the current owner."
      },
      "vendingMachine(uint256)": {
        "details": "Select a token to buy from those available",
        "params": {
          "_tokenID": "- token desired to be bought"
        }
      },
      "withdraw()": {
        "details": "Withdraw funds from contract"
      }
    },
    "version": 1
  },
  "userdoc": {
    "kind": "user",
    "methods": {},
    "version": 1
  }
}