{
  "contractName": "Pawnchain",
  "abi": [
    {
      "inputs": [],
      "stateMutability": "nonpayable",
      "type": "constructor"
    },
    {
      "anonymous": false,
      "inputs": [
        {
          "indexed": true,
          "internalType": "address",
          "name": "account",
          "type": "address"
        },
        {
          "indexed": true,
          "internalType": "address",
          "name": "operator",
          "type": "address"
        },
        {
          "indexed": false,
          "internalType": "bool",
          "name": "approved",
          "type": "bool"
        }
      ],
      "name": "ApprovalForAll",
      "type": "event"
    },
    {
      "anonymous": false,
      "inputs": [
        {
          "indexed": true,
          "internalType": "address",
          "name": "operator",
          "type": "address"
        },
        {
          "indexed": true,
          "internalType": "address",
          "name": "from",
          "type": "address"
        },
        {
          "indexed": true,
          "internalType": "address",
          "name": "to",
          "type": "address"
        },
        {
          "indexed": false,
          "internalType": "uint256[]",
          "name": "ids",
          "type": "uint256[]"
        },
        {
          "indexed": false,
          "internalType": "uint256[]",
          "name": "values",
          "type": "uint256[]"
        }
      ],
      "name": "TransferBatch",
      "type": "event"
    },
    {
      "anonymous": false,
      "inputs": [
        {
          "indexed": true,
          "internalType": "address",
          "name": "operator",
          "type": "address"
        },
        {
          "indexed": true,
          "internalType": "address",
          "name": "from",
          "type": "address"
        },
        {
          "indexed": true,
          "internalType": "address",
          "name": "to",
          "type": "address"
        },
        {
          "indexed": false,
          "internalType": "uint256",
          "name": "id",
          "type": "uint256"
        },
        {
          "indexed": false,
          "internalType": "uint256",
          "name": "value",
          "type": "uint256"
        }
      ],
      "name": "TransferSingle",
      "type": "event"
    },
    {
      "anonymous": false,
      "inputs": [
        {
          "indexed": false,
          "internalType": "string",
          "name": "value",
          "type": "string"
        },
        {
          "indexed": true,
          "internalType": "uint256",
          "name": "id",
          "type": "uint256"
        }
      ],
      "name": "URI",
      "type": "event"
    },
    {
      "inputs": [
        {
          "internalType": "address",
          "name": "account",
          "type": "address"
        },
        {
          "internalType": "uint256",
          "name": "id",
          "type": "uint256"
        }
      ],
      "name": "balanceOf",
      "outputs": [
        {
          "internalType": "uint256",
          "name": "",
          "type": "uint256"
        }
      ],
      "stateMutability": "view",
      "type": "function",
      "constant": true
    },
    {
      "inputs": [
        {
          "internalType": "address[]",
          "name": "accounts",
          "type": "address[]"
        },
        {
          "internalType": "uint256[]",
          "name": "ids",
          "type": "uint256[]"
        }
      ],
      "name": "balanceOfBatch",
      "outputs": [
        {
          "internalType": "uint256[]",
          "name": "",
          "type": "uint256[]"
        }
      ],
      "stateMutability": "view",
      "type": "function",
      "constant": true
    },
    {
      "inputs": [
        {
          "internalType": "address",
          "name": "account",
          "type": "address"
        },
        {
          "internalType": "address",
          "name": "operator",
          "type": "address"
        }
      ],
      "name": "isApprovedForAll",
      "outputs": [
        {
          "internalType": "bool",
          "name": "",
          "type": "bool"
        }
      ],
      "stateMutability": "view",
      "type": "function",
      "constant": true
    },
    {
      "inputs": [
        {
          "internalType": "address",
          "name": "from",
          "type": "address"
        },
        {
          "internalType": "address",
          "name": "to",
          "type": "address"
        },
        {
          "internalType": "uint256[]",
          "name": "ids",
          "type": "uint256[]"
        },
        {
          "internalType": "uint256[]",
          "name": "amounts",
          "type": "uint256[]"
        },
        {
          "internalType": "bytes",
          "name": "data",
          "type": "bytes"
        }
      ],
      "name": "safeBatchTransferFrom",
      "outputs": [],
      "stateMutability": "nonpayable",
      "type": "function"
    },
    {
      "inputs": [
        {
          "internalType": "address",
          "name": "from",
          "type": "address"
        },
        {
          "internalType": "address",
          "name": "to",
          "type": "address"
        },
        {
          "internalType": "uint256",
          "name": "id",
          "type": "uint256"
        },
        {
          "internalType": "uint256",
          "name": "amount",
          "type": "uint256"
        },
        {
          "internalType": "bytes",
          "name": "data",
          "type": "bytes"
        }
      ],
      "name": "safeTransferFrom",
      "outputs": [],
      "stateMutability": "nonpayable",
      "type": "function"
    },
    {
      "inputs": [
        {
          "internalType": "address",
          "name": "operator",
          "type": "address"
        },
        {
          "internalType": "bool",
          "name": "approved",
          "type": "bool"
        }
      ],
      "name": "setApprovalForAll",
      "outputs": [],
      "stateMutability": "nonpayable",
      "type": "function"
    },
    {
      "inputs": [
        {
          "internalType": "bytes4",
          "name": "interfaceId",
          "type": "bytes4"
        }
      ],
      "name": "supportsInterface",
      "outputs": [
        {
          "internalType": "bool",
          "name": "",
          "type": "bool"
        }
      ],
      "stateMutability": "view",
      "type": "function",
      "constant": true
    },
    {
      "inputs": [
        {
          "internalType": "uint256",
          "name": "",
          "type": "uint256"
        }
      ],
      "name": "uri",
      "outputs": [
        {
          "internalType": "string",
          "name": "",
          "type": "string"
        }
      ],
      "stateMutability": "view",
      "type": "function",
      "constant": true
    },
    {
      "inputs": [
        {
          "internalType": "string",
          "name": "_hash",
          "type": "string"
        },
        {
          "internalType": "uint256",
          "name": "_amount",
          "type": "uint256"
        },
        {
          "internalType": "uint256",
          "name": "_price",
          "type": "uint256"
        }
      ],
      "name": "mintPGN",
      "outputs": [],
      "stateMutability": "nonpayable",
      "type": "function"
    },
    {
      "inputs": [
        {
          "internalType": "uint256",
          "name": "_tokenID",
          "type": "uint256"
        },
        {
          "internalType": "uint256",
          "name": "_amount",
          "type": "uint256"
        }
      ],
      "name": "vendingMachine",
      "outputs": [],
      "stateMutability": "payable",
      "type": "function",
      "payable": true
    },
    {
      "inputs": [],
      "name": "withdraw",
      "outputs": [],
      "stateMutability": "nonpayable",
      "type": "function"
    },
    {
      "inputs": [],
      "name": "transferOwnership",
      "outputs": [],
      "stateMutability": "nonpayable",
      "type": "function"
    }
  ],
  "bytecode": "0x60806040523480156200001157600080fd5b506040518060400160405280600d81526020017f697066733a2f2f7b686173687d0000000000000000000000000000000000000081525062000059816200006860201b60201c565b50600160038190555062000199565b80600290805190602001906200008092919062000084565b5050565b828054620000929062000134565b90600052602060002090601f016020900481019282620000b6576000855562000102565b82601f10620000d157805160ff191683800117855562000102565b8280016001018555821562000102579182015b8281111562000101578251825591602001919060010190620000e4565b5b50905062000111919062000115565b5090565b5b808211156200013057600081600090555060010162000116565b5090565b600060028204905060018216806200014d57607f821691505b602082108114156200016457620001636200016a565b5b50919050565b7f4e487b7100000000000000000000000000000000000000000000000000000000600052602260045260246000fd5b61301780620001a96000396000f3fe6080604052600436106100a65760003560e01c80634e1273f4116100645780634e1273f4146101cb578063582c886114610208578063880ad0af14610224578063a22cb4651461023b578063e985e9c514610264578063f242432a146102a1576100a6565b8062fdd58e146100ab57806301ffc9a7146100e85780630e89341c1461012557806310025c7d146101625780632eb2c2d61461018b5780633ccfd60b146101b4575b600080fd5b3480156100b757600080fd5b506100d260048036038101906100cd9190611dbd565b6102ca565b6040516100df9190612629565b60405180910390f35b3480156100f457600080fd5b5061010f600480360381019061010a9190611e65565b610393565b60405161011c919061242c565b60405180910390f35b34801561013157600080fd5b5061014c60048036038101906101479190611f1e565b610475565b6040516101599190612447565b60405180910390f35b34801561016e57600080fd5b5061018960048036038101906101849190611eb7565b610509565b005b34801561019757600080fd5b506101b260048036038101906101ad9190611c33565b610615565b005b3480156101c057600080fd5b506101c9610a0b565b005b3480156101d757600080fd5b506101f260048036038101906101ed9190611df9565b610ac4565b6040516101ff91906123d3565b60405180910390f35b610222600480360381019061021d9190611f47565b610c75565b005b34801561023057600080fd5b50610239610d09565b005b34801561024757600080fd5b50610262600480360381019061025d9190611d81565b610d0b565b005b34801561027057600080fd5b5061028b60048036038101906102869190611bf7565b610e8c565b604051610298919061242c565b60405180910390f35b3480156102ad57600080fd5b506102c860048036038101906102c39190611cf2565b610f20565b005b60008073ffffffffffffffffffffffffffffffffffffffff168373ffffffffffffffffffffffffffffffffffffffff16141561033b576040517f08c379a0000000000000000000000000000000000000000000000000000000008152600401610332906124c9565b60405180910390fd5b60008083815260200190815260200160002060008473ffffffffffffffffffffffffffffffffffffffff1673ffffffffffffffffffffffffffffffffffffffff16815260200190815260200160002054905092915050565b60007fd9b67a26000000000000000000000000000000000000000000000000000000007bffffffffffffffffffffffffffffffffffffffffffffffffffffffff1916827bffffffffffffffffffffffffffffffffffffffffffffffffffffffff1916148061045e57507f0e89341c000000000000000000000000000000000000000000000000000000007bffffffffffffffffffffffffffffffffffffffffffffffffffffffff1916827bffffffffffffffffffffffffffffffffffffffffffffffffffffffff1916145b8061046e575061046d82611238565b5b9050919050565b6060600280546104849061296d565b80601f01602080910402602001604051908101604052809291908181526020018280546104b09061296d565b80156104fd5780601f106104d2576101008083540402835291602001916104fd565b820191906000526020600020905b8154815290600101906020018083116104e057829003601f168201915b50505050509050919050565b600160058460405161051b91906122e5565b908152602001604051809103902054141561056b576040517f08c379a000000000000000000000000000000000000000000000000000000000815260040161056290612489565b60405180910390fd5b6105883360035484604051806020016040528060008152506112a2565b610593306001610d0b565b60016005846040516105a591906122e5565b90815260200160405180910390208190555080600760006003548152602001908152602001600020819055508260066000600354815260200190815260200160002090805190602001906105fa9291906118ef565b50600160035461060a91906127d3565b600381905550505050565b8151835114610659576040517f08c379a0000000000000000000000000000000000000000000000000000000008152600401610650906125e9565b60405180910390fd5b600073ffffffffffffffffffffffffffffffffffffffff168473ffffffffffffffffffffffffffffffffffffffff1614156106c9576040517f08c379a00000000000000000000000000000000000000000000000000000000081526004016106c090612509565b60405180910390fd5b6106d1611438565b73ffffffffffffffffffffffffffffffffffffffff168573ffffffffffffffffffffffffffffffffffffffff161480610717575061071685610711611438565b610e8c565b5b610756576040517f08c379a000000000000000000000000000000000000000000000000000000000815260040161074d90612529565b60405180910390fd5b6000610760611438565b9050610770818787878787611440565b60005b84518110156109765760008582815181106107b7577f4e487b7100000000000000000000000000000000000000000000000000000000600052603260045260246000fd5b6020026020010151905060008583815181106107fc577f4e487b7100000000000000000000000000000000000000000000000000000000600052603260045260246000fd5b60200260200101519050600080600084815260200190815260200160002060008b73ffffffffffffffffffffffffffffffffffffffff1673ffffffffffffffffffffffffffffffffffffffff1681526020019081526020016000205490508181101561089d576040517f08c379a000000000000000000000000000000000000000000000000000000000815260040161089490612549565b60405180910390fd5b81816108a99190612883565b60008085815260200190815260200160002060008c73ffffffffffffffffffffffffffffffffffffffff1673ffffffffffffffffffffffffffffffffffffffff168152602001908152602001600020819055508160008085815260200190815260200160002060008b73ffffffffffffffffffffffffffffffffffffffff1673ffffffffffffffffffffffffffffffffffffffff168152602001908152602001600020600082825461095b91906127d3565b925050819055505050508061096f906129d0565b9050610773565b508473ffffffffffffffffffffffffffffffffffffffff168673ffffffffffffffffffffffffffffffffffffffff168273ffffffffffffffffffffffffffffffffffffffff167f4a39dc06d4c0dbc64b70af90fd698a233a518aa5d07e595d983b8c0526c8f7fb87876040516109ed9291906123f5565b60405180910390a4610a03818787878787611448565b505050505050565b60003373ffffffffffffffffffffffffffffffffffffffff16600454604051610a33906122fc565b60006040518083038185875af1925050503d8060008114610a70576040519150601f19603f3d011682016040523d82523d6000602084013e610a75565b606091505b5050905080610ab9576040517f08c379a0000000000000000000000000000000000000000000000000000000008152600401610ab090612589565b60405180910390fd5b600060048190555050565b60608151835114610b0a576040517f08c379a0000000000000000000000000000000000000000000000000000000008152600401610b01906125c9565b60405180910390fd5b6000835167ffffffffffffffff811115610b4d577f4e487b7100000000000000000000000000000000000000000000000000000000600052604160045260246000fd5b604051908082528060200260200182016040528015610b7b5781602001602082028036833780820191505090505b50905060005b8451811015610c6a57610c14858281518110610bc6577f4e487b7100000000000000000000000000000000000000000000000000000000600052603260045260246000fd5b6020026020010151858381518110610c07577f4e487b7100000000000000000000000000000000000000000000000000000000600052603260045260246000fd5b60200260200101516102ca565b828281518110610c4d577f4e487b7100000000000000000000000000000000000000000000000000000000600052603260045260246000fd5b60200260200101818152505080610c63906129d0565b9050610b81565b508091505092915050565b600760008381526020019081526020016000205481610c949190612829565b3414610cd5576040517f08c379a0000000000000000000000000000000000000000000000000000000008152600401610ccc90612569565b60405180910390fd5b610cf13033848460405180602001604052806000815250610f20565b34600454610cff91906127d3565b6004819055505050565b565b8173ffffffffffffffffffffffffffffffffffffffff16610d2a611438565b73ffffffffffffffffffffffffffffffffffffffff161415610d81576040517f08c379a0000000000000000000000000000000000000000000000000000000008152600401610d78906125a9565b60405180910390fd5b8060016000610d8e611438565b73ffffffffffffffffffffffffffffffffffffffff1673ffffffffffffffffffffffffffffffffffffffff16815260200190815260200160002060008473ffffffffffffffffffffffffffffffffffffffff1673ffffffffffffffffffffffffffffffffffffffff16815260200190815260200160002060006101000a81548160ff0219169083151502179055508173ffffffffffffffffffffffffffffffffffffffff16610e3b611438565b73ffffffffffffffffffffffffffffffffffffffff167f17307eab39ab6107e8899845ad3d59bd9653f200f220920489ca2b5937696c3183604051610e80919061242c565b60405180910390a35050565b6000600160008473ffffffffffffffffffffffffffffffffffffffff1673ffffffffffffffffffffffffffffffffffffffff16815260200190815260200160002060008373ffffffffffffffffffffffffffffffffffffffff1673ffffffffffffffffffffffffffffffffffffffff16815260200190815260200160002060009054906101000a900460ff16905092915050565b600073ffffffffffffffffffffffffffffffffffffffff168473ffffffffffffffffffffffffffffffffffffffff161415610f90576040517f08c379a0000000000000000000000000000000000000000000000000000000008152600401610f8790612509565b60405180910390fd5b610f98611438565b73ffffffffffffffffffffffffffffffffffffffff168573ffffffffffffffffffffffffffffffffffffffff161480610fde5750610fdd85610fd8611438565b610e8c565b5b61101d576040517f08c379a0000000000000000000000000000000000000000000000000000000008152600401611014906124e9565b60405180910390fd5b6000611027611438565b90506110478187876110388861162f565b6110418861162f565b87611440565b600080600086815260200190815260200160002060008873ffffffffffffffffffffffffffffffffffffffff1673ffffffffffffffffffffffffffffffffffffffff168152602001908152602001600020549050838110156110de576040517f08c379a00000000000000000000000000000000000000000000000000000000081526004016110d590612549565b60405180910390fd5b83816110ea9190612883565b60008087815260200190815260200160002060008973ffffffffffffffffffffffffffffffffffffffff1673ffffffffffffffffffffffffffffffffffffffff168152602001908152602001600020819055508360008087815260200190815260200160002060008873ffffffffffffffffffffffffffffffffffffffff1673ffffffffffffffffffffffffffffffffffffffff168152602001908152602001600020600082825461119c91906127d3565b925050819055508573ffffffffffffffffffffffffffffffffffffffff168773ffffffffffffffffffffffffffffffffffffffff168373ffffffffffffffffffffffffffffffffffffffff167fc3d58168c5ae7397731d063d5bbf3d657854427343f4c083240f7aacaa2d0f628888604051611219929190612644565b60405180910390a461122f8288888888886116f5565b50505050505050565b60007f01ffc9a7000000000000000000000000000000000000000000000000000000007bffffffffffffffffffffffffffffffffffffffffffffffffffffffff1916827bffffffffffffffffffffffffffffffffffffffffffffffffffffffff1916149050919050565b600073ffffffffffffffffffffffffffffffffffffffff168473ffffffffffffffffffffffffffffffffffffffff161415611312576040517f08c379a000000000000000000000000000000000000000000000000000000000815260040161130990612609565b60405180910390fd5b600061131c611438565b905061133d8160008761132e8861162f565b6113378861162f565b87611440565b8260008086815260200190815260200160002060008773ffffffffffffffffffffffffffffffffffffffff1673ffffffffffffffffffffffffffffffffffffffff168152602001908152602001600020600082825461139c91906127d3565b925050819055508473ffffffffffffffffffffffffffffffffffffffff16600073ffffffffffffffffffffffffffffffffffffffff168273ffffffffffffffffffffffffffffffffffffffff167fc3d58168c5ae7397731d063d5bbf3d657854427343f4c083240f7aacaa2d0f62878760405161141a929190612644565b60405180910390a4611431816000878787876116f5565b5050505050565b600033905090565b505050505050565b6114678473ffffffffffffffffffffffffffffffffffffffff166118dc565b15611627578373ffffffffffffffffffffffffffffffffffffffff1663bc197c8187878686866040518663ffffffff1660e01b81526004016114ad959493929190612311565b602060405180830381600087803b1580156114c757600080fd5b505af19250505080156114f857506040513d601f19601f820116820180604052508101906114f59190611e8e565b60015b61159e57611504612aa6565b806308c379a014156115615750611519612eef565b806115245750611563565b806040517f08c379a00000000000000000000000000000000000000000000000000000000081526004016115589190612447565b60405180910390fd5b505b6040517f08c379a000000000000000000000000000000000000000000000000000000000815260040161159590612469565b60405180910390fd5b63bc197c8160e01b7bffffffffffffffffffffffffffffffffffffffffffffffffffffffff1916817bffffffffffffffffffffffffffffffffffffffffffffffffffffffff191614611625576040517f08c379a000000000000000000000000000000000000000000000000000000000815260040161161c906124a9565b60405180910390fd5b505b505050505050565b60606000600167ffffffffffffffff811115611674577f4e487b7100000000000000000000000000000000000000000000000000000000600052604160045260246000fd5b6040519080825280602002602001820160405280156116a25781602001602082028036833780820191505090505b50905082816000815181106116e0577f4e487b7100000000000000000000000000000000000000000000000000000000600052603260045260246000fd5b60200260200101818152505080915050919050565b6117148473ffffffffffffffffffffffffffffffffffffffff166118dc565b156118d4578373ffffffffffffffffffffffffffffffffffffffff1663f23a6e6187878686866040518663ffffffff1660e01b815260040161175a959493929190612379565b602060405180830381600087803b15801561177457600080fd5b505af19250505080156117a557506040513d601f19601f820116820180604052508101906117a29190611e8e565b60015b61184b576117b1612aa6565b806308c379a0141561180e57506117c6612eef565b806117d15750611810565b806040517f08c379a00000000000000000000000000000000000000000000000000000000081526004016118059190612447565b60405180910390fd5b505b6040517f08c379a000000000000000000000000000000000000000000000000000000000815260040161184290612469565b60405180910390fd5b63f23a6e6160e01b7bffffffffffffffffffffffffffffffffffffffffffffffffffffffff1916817bffffffffffffffffffffffffffffffffffffffffffffffffffffffff1916146118d2576040517f08c379a00000000000000000000000000000000000000000000000000000000081526004016118c9906124a9565b60405180910390fd5b505b505050505050565b600080823b905060008111915050919050565b8280546118fb9061296d565b90600052602060002090601f01602090048101928261191d5760008555611964565b82601f1061193657805160ff1916838001178555611964565b82800160010185558215611964579182015b82811115611963578251825591602001919060010190611948565b5b5090506119719190611975565b5090565b5b8082111561198e576000816000905550600101611976565b5090565b60006119a56119a084612692565b61266d565b905080838252602082019050828560208602820111156119c457600080fd5b60005b858110156119f457816119da8882611ae6565b8452602084019350602083019250506001810190506119c7565b5050509392505050565b6000611a11611a0c846126be565b61266d565b90508083825260208201905082856020860282011115611a3057600080fd5b60005b85811015611a605781611a468882611be2565b845260208401935060208301925050600181019050611a33565b5050509392505050565b6000611a7d611a78846126ea565b61266d565b905082815260208101848484011115611a9557600080fd5b611aa084828561292b565b509392505050565b6000611abb611ab68461271b565b61266d565b905082815260208101848484011115611ad357600080fd5b611ade84828561292b565b509392505050565b600081359050611af581612f85565b92915050565b600082601f830112611b0c57600080fd5b8135611b1c848260208601611992565b91505092915050565b600082601f830112611b3657600080fd5b8135611b468482602086016119fe565b91505092915050565b600081359050611b5e81612f9c565b92915050565b600081359050611b7381612fb3565b92915050565b600081519050611b8881612fb3565b92915050565b600082601f830112611b9f57600080fd5b8135611baf848260208601611a6a565b91505092915050565b600082601f830112611bc957600080fd5b8135611bd9848260208601611aa8565b91505092915050565b600081359050611bf181612fca565b92915050565b60008060408385031215611c0a57600080fd5b6000611c1885828601611ae6565b9250506020611c2985828601611ae6565b9150509250929050565b600080600080600060a08688031215611c4b57600080fd5b6000611c5988828901611ae6565b9550506020611c6a88828901611ae6565b945050604086013567ffffffffffffffff811115611c8757600080fd5b611c9388828901611b25565b935050606086013567ffffffffffffffff811115611cb057600080fd5b611cbc88828901611b25565b925050608086013567ffffffffffffffff811115611cd957600080fd5b611ce588828901611b8e565b9150509295509295909350565b600080600080600060a08688031215611d0a57600080fd5b6000611d1888828901611ae6565b9550506020611d2988828901611ae6565b9450506040611d3a88828901611be2565b9350506060611d4b88828901611be2565b925050608086013567ffffffffffffffff811115611d6857600080fd5b611d7488828901611b8e565b9150509295509295909350565b60008060408385031215611d9457600080fd5b6000611da285828601611ae6565b9250506020611db385828601611b4f565b9150509250929050565b60008060408385031215611dd057600080fd5b6000611dde85828601611ae6565b9250506020611def85828601611be2565b9150509250929050565b60008060408385031215611e0c57600080fd5b600083013567ffffffffffffffff811115611e2657600080fd5b611e3285828601611afb565b925050602083013567ffffffffffffffff811115611e4f57600080fd5b611e5b85828601611b25565b9150509250929050565b600060208284031215611e7757600080fd5b6000611e8584828501611b64565b91505092915050565b600060208284031215611ea057600080fd5b6000611eae84828501611b79565b91505092915050565b600080600060608486031215611ecc57600080fd5b600084013567ffffffffffffffff811115611ee657600080fd5b611ef286828701611bb8565b9350506020611f0386828701611be2565b9250506040611f1486828701611be2565b9150509250925092565b600060208284031215611f3057600080fd5b6000611f3e84828501611be2565b91505092915050565b60008060408385031215611f5a57600080fd5b6000611f6885828601611be2565b9250506020611f7985828601611be2565b9150509250929050565b6000611f8f83836122c7565b60208301905092915050565b611fa4816128b7565b82525050565b6000611fb58261275c565b611fbf818561278a565b9350611fca8361274c565b8060005b83811015611ffb578151611fe28882611f83565b9750611fed8361277d565b925050600181019050611fce565b5085935050505092915050565b612011816128c9565b82525050565b600061202282612767565b61202c818561279b565b935061203c81856020860161293a565b61204581612ac8565b840191505092915050565b600061205b82612772565b61206581856127b7565b935061207581856020860161293a565b61207e81612ac8565b840191505092915050565b600061209482612772565b61209e81856127c8565b93506120ae81856020860161293a565b80840191505092915050565b60006120c76034836127b7565b91506120d282612ae6565b604082019050919050565b60006120ea6018836127b7565b91506120f582612b35565b602082019050919050565b600061210d6028836127b7565b915061211882612b5e565b604082019050919050565b6000612130602b836127b7565b915061213b82612bad565b604082019050919050565b60006121536029836127b7565b915061215e82612bfc565b604082019050919050565b60006121766025836127b7565b915061218182612c4b565b604082019050919050565b60006121996032836127b7565b91506121a482612c9a565b604082019050919050565b60006121bc602a836127b7565b91506121c782612ce9565b604082019050919050565b60006121df6000836127ac565b91506121ea82612d38565b600082019050919050565b60006122026023836127b7565b915061220d82612d3b565b604082019050919050565b60006122256017836127b7565b915061223082612d8a565b602082019050919050565b60006122486029836127b7565b915061225382612db3565b604082019050919050565b600061226b6029836127b7565b915061227682612e02565b604082019050919050565b600061228e6028836127b7565b915061229982612e51565b604082019050919050565b60006122b16021836127b7565b91506122bc82612ea0565b604082019050919050565b6122d081612921565b82525050565b6122df81612921565b82525050565b60006122f18284612089565b915081905092915050565b6000612307826121d2565b9150819050919050565b600060a0820190506123266000830188611f9b565b6123336020830187611f9b565b81810360408301526123458186611faa565b905081810360608301526123598185611faa565b9050818103608083015261236d8184612017565b90509695505050505050565b600060a08201905061238e6000830188611f9b565b61239b6020830187611f9b565b6123a860408301866122d6565b6123b560608301856122d6565b81810360808301526123c78184612017565b90509695505050505050565b600060208201905081810360008301526123ed8184611faa565b905092915050565b6000604082019050818103600083015261240f8185611faa565b905081810360208301526124238184611faa565b90509392505050565b60006020820190506124416000830184612008565b92915050565b600060208201905081810360008301526124618184612050565b905092915050565b60006020820190508181036000830152612482816120ba565b9050919050565b600060208201905081810360008301526124a2816120dd565b9050919050565b600060208201905081810360008301526124c281612100565b9050919050565b600060208201905081810360008301526124e281612123565b9050919050565b6000602082019050818103600083015261250281612146565b9050919050565b6000602082019050818103600083015261252281612169565b9050919050565b600060208201905081810360008301526125428161218c565b9050919050565b60006020820190508181036000830152612562816121af565b9050919050565b60006020820190508181036000830152612582816121f5565b9050919050565b600060208201905081810360008301526125a281612218565b9050919050565b600060208201905081810360008301526125c28161223b565b9050919050565b600060208201905081810360008301526125e28161225e565b9050919050565b6000602082019050818103600083015261260281612281565b9050919050565b60006020820190508181036000830152612622816122a4565b9050919050565b600060208201905061263e60008301846122d6565b92915050565b600060408201905061265960008301856122d6565b61266660208301846122d6565b9392505050565b6000612677612688565b9050612683828261299f565b919050565b6000604051905090565b600067ffffffffffffffff8211156126ad576126ac612a77565b5b602082029050602081019050919050565b600067ffffffffffffffff8211156126d9576126d8612a77565b5b602082029050602081019050919050565b600067ffffffffffffffff82111561270557612704612a77565b5b61270e82612ac8565b9050602081019050919050565b600067ffffffffffffffff82111561273657612735612a77565b5b61273f82612ac8565b9050602081019050919050565b6000819050602082019050919050565b600081519050919050565b600081519050919050565b600081519050919050565b6000602082019050919050565b600082825260208201905092915050565b600082825260208201905092915050565b600081905092915050565b600082825260208201905092915050565b600081905092915050565b60006127de82612921565b91506127e983612921565b9250827fffffffffffffffffffffffffffffffffffffffffffffffffffffffffffffffff0382111561281e5761281d612a19565b5b828201905092915050565b600061283482612921565b915061283f83612921565b9250817fffffffffffffffffffffffffffffffffffffffffffffffffffffffffffffffff048311821515161561287857612877612a19565b5b828202905092915050565b600061288e82612921565b915061289983612921565b9250828210156128ac576128ab612a19565b5b828203905092915050565b60006128c282612901565b9050919050565b60008115159050919050565b60007fffffffff0000000000000000000000000000000000000000000000000000000082169050919050565b600073ffffffffffffffffffffffffffffffffffffffff82169050919050565b6000819050919050565b82818337600083830152505050565b60005b8381101561295857808201518184015260208101905061293d565b83811115612967576000848401525b50505050565b6000600282049050600182168061298557607f821691505b6020821081141561299957612998612a48565b5b50919050565b6129a882612ac8565b810181811067ffffffffffffffff821117156129c7576129c6612a77565b5b80604052505050565b60006129db82612921565b91507fffffffffffffffffffffffffffffffffffffffffffffffffffffffffffffffff821415612a0e57612a0d612a19565b5b600182019050919050565b7f4e487b7100000000000000000000000000000000000000000000000000000000600052601160045260246000fd5b7f4e487b7100000000000000000000000000000000000000000000000000000000600052602260045260246000fd5b7f4e487b7100000000000000000000000000000000000000000000000000000000600052604160045260246000fd5b600060033d1115612ac55760046000803e612ac2600051612ad9565b90505b90565b6000601f19601f8301169050919050565b60008160e01c9050919050565b7f455243313135353a207472616e7366657220746f206e6f6e204552433131353560008201527f526563656976657220696d706c656d656e746572000000000000000000000000602082015250565b7f54686973206861736820616c7265616479206578697374730000000000000000600082015250565b7f455243313135353a204552433131353552656365697665722072656a6563746560008201527f6420746f6b656e73000000000000000000000000000000000000000000000000602082015250565b7f455243313135353a2062616c616e636520717565727920666f7220746865207a60008201527f65726f2061646472657373000000000000000000000000000000000000000000602082015250565b7f455243313135353a2063616c6c6572206973206e6f74206f776e6572206e6f7260008201527f20617070726f7665640000000000000000000000000000000000000000000000602082015250565b7f455243313135353a207472616e7366657220746f20746865207a65726f20616460008201527f6472657373000000000000000000000000000000000000000000000000000000602082015250565b7f455243313135353a207472616e736665722063616c6c6572206973206e6f742060008201527f6f776e6572206e6f7220617070726f7665640000000000000000000000000000602082015250565b7f455243313135353a20696e73756666696369656e742062616c616e636520666f60008201527f72207472616e7366657200000000000000000000000000000000000000000000602082015250565b50565b7f596f7520646964206e6f74207061792074686520636f727265637420616d6f7560008201527f6e74210000000000000000000000000000000000000000000000000000000000602082015250565b7f536f6d657468696e672077656e742077726f6e672e2e2e000000000000000000600082015250565b7f455243313135353a2073657474696e6720617070726f76616c2073746174757360008201527f20666f722073656c660000000000000000000000000000000000000000000000602082015250565b7f455243313135353a206163636f756e747320616e6420696473206c656e67746860008201527f206d69736d617463680000000000000000000000000000000000000000000000602082015250565b7f455243313135353a2069647320616e6420616d6f756e7473206c656e6774682060008201527f6d69736d61746368000000000000000000000000000000000000000000000000602082015250565b7f455243313135353a206d696e7420746f20746865207a65726f2061646472657360008201527f7300000000000000000000000000000000000000000000000000000000000000602082015250565b600060443d1015612eff57612f82565b612f07612688565b60043d036004823e80513d602482011167ffffffffffffffff82111715612f2f575050612f82565b808201805167ffffffffffffffff811115612f4d5750505050612f82565b80602083010160043d038501811115612f6a575050505050612f82565b612f798260200185018661299f565b82955050505050505b90565b612f8e816128b7565b8114612f9957600080fd5b50565b612fa5816128c9565b8114612fb057600080fd5b50565b612fbc816128d5565b8114612fc757600080fd5b50565b612fd381612921565b8114612fde57600080fd5b5056fea2646970667358221220da5e8ebd068363f2f07231e793e1e18da665ea701f3e1b72515a9c14cfb3172064736f6c63430008040033",
  "immutableReferences": {},
  "source": "// SPDX-License-Identifier: MIT\n\n// TODO: set functions so only owner of contract can call\n\npragma solidity ^0.8.0;\n\nimport \"@openzeppelin/contracts/token/ERC1155/ERC1155.sol\";\n\ncontract Pawnchain is ERC1155 {\n    uint256 _tokenCounter;\n    uint256 _myETH;\n    \n    // _hashes and _pgns are probably redundant...\n    mapping(string => uint256) private _hashes;\n    mapping(uint256 => string) private _pgns;\n    mapping(uint256 => uint256) private _prices;\n\n    constructor() ERC1155(\"ipfs://{hash}\") {\n        _tokenCounter = 1;\n    }\n    \n    /**\n        @dev Mint a a batch of NFTs representing a chess game\n\n        @param _hash - hash of PGN data hosted on IPFS\n        @param _amount - amount of collectibles to be minted\n        @param _price - price to associate with game collectible\n     */\n    function mintPGN(string memory _hash, uint256 _amount, uint256 _price) external {\n        require(_hashes[_hash] != 1, \"This hash already exists\");\n        \n        // Tokens belong to minter and contract is approved to sell\n        _mint(msg.sender, _tokenCounter, _amount, \"\");\n        setApprovalForAll(address(this), true);\n\n        _hashes[_hash] = 1;\n        _prices[_tokenCounter] = _price;\n        _pgns[_tokenCounter] = _hash;\n\n        _tokenCounter = _tokenCounter + 1;\n    }\n\n    /**\n        @dev Select a token to buy from those available\n\n        @param _tokenID - token desired to be bought\n        @param _amount - amount of token to be bought\n     */\n    function vendingMachine(uint256 _tokenID, uint256 _amount) external payable {\n        require(msg.value == (_amount * _prices[_tokenID]), \"You did not pay the correct amount!\");\n\n        safeTransferFrom(address(this), msg.sender, _tokenID, _amount, \"\");\n        _myETH = _myETH + msg.value;\n    }\n\n    /**\n    \n     */\n    function withdraw() external {\n        (bool success,) = payable(msg.sender).call{value: _myETH}(\"\");\n        require(success, \"Something went wrong...\");\n\n        _myETH = 0;\n    }\n\n    /**\n\n    \n     */\n    function transferOwnership() external {\n        \n    }\n\n}",
  "sourcePath": "/home/dave/pawnchain/contracts/Pawnchain.sol",
  "compiler": {
    "name": "solc",
    "version": "0.8.4+commit.c7e474f2.Emscripten.clang"
  },
  "schemaVersion": "3.3.4",
  "updatedAt": "2021-04-22T01:43:41.571Z",
  "networkType": "ethereum",
  "devdoc": {
    "kind": "dev",
    "methods": {
      "balanceOf(address,uint256)": {
        "details": "See {IERC1155-balanceOf}. Requirements: - `account` cannot be the zero address."
      },
      "balanceOfBatch(address[],uint256[])": {
        "details": "See {IERC1155-balanceOfBatch}. Requirements: - `accounts` and `ids` must have the same length."
      },
      "isApprovedForAll(address,address)": {
        "details": "See {IERC1155-isApprovedForAll}."
      },
      "mintPGN(string,uint256,uint256)": {
        "details": "Mint a a batch of NFTs representing a chess game",
        "params": {
          "_amount": "- amount of collectibles to be minted",
          "_hash": "- hash of PGN data hosted on IPFS",
          "_price": "- price to associate with game collectible"
        }
      },
      "safeBatchTransferFrom(address,address,uint256[],uint256[],bytes)": {
        "details": "See {IERC1155-safeBatchTransferFrom}."
      },
      "safeTransferFrom(address,address,uint256,uint256,bytes)": {
        "details": "See {IERC1155-safeTransferFrom}."
      },
      "setApprovalForAll(address,bool)": {
        "details": "See {IERC1155-setApprovalForAll}."
      },
      "supportsInterface(bytes4)": {
        "details": "See {IERC165-supportsInterface}."
      },
      "uri(uint256)": {
        "details": "See {IERC1155MetadataURI-uri}. This implementation returns the same URI for *all* token types. It relies on the token type ID substitution mechanism https://eips.ethereum.org/EIPS/eip-1155#metadata[defined in the EIP]. Clients calling this function must replace the `\\{id\\}` substring with the actual token type ID."
      },
      "vendingMachine(uint256,uint256)": {
        "details": "Select a token to buy from those available",
        "params": {
          "_amount": "- amount of token to be bought",
          "_tokenID": "- token desired to be bought"
        }
      }
    },
    "version": 1
  },
  "userdoc": {
    "kind": "user",
    "methods": {},
    "version": 1
  }
}